:100000000C942A000C943F000C943F000C943F0089
:100010000C943F000C943F000C943F000C943F0064
:100020000C943F000C943F000C943F000C943F0054
:100030000C943F000C943F000C943F000C943F0044
:100040000C943F000C943F000C943F000C943F0034
:100050000C943F0011241FBECFE5D8E0DEBFCDBF1A
:1000600011E0A0E6B0E0EEE4F6E102C005900D92EA
:10007000A636B107D9F70E947B090C94250B0C9486
:10008000000080FF02C0DA9A01C0DA9881FF02C046
:10009000DB9A01C0DB9882FF02C0DC9A01C0DC98C9
:1000A00083FF02C0DD9A0895DD9808951F93182FED
:1000B000D99A82958F700E944100D998D99A812F40
:1000C0000E944100D99888EC90E00197F1F71F91C8
:1000D0000895D8980E9456000895D89A0E94560014
:1000E0000895CF93DF93EC0103C021960E946D0029
:1000F00088818823D1F7DF91CF9108956295660FAB
:10010000660F607C680F862F80680E9469000895E2
:1001100081E00E94690080E49FE10197F1F7089572
:1001200082E00E94690080E49FE10197F1F7089561
:100130001F93CF93DF93D29AD39AD49AD59AD19A18
:10014000D09A80E69AEE0197F1F7D898D99810E006
:10015000C0E2DEE4D99A83E00E944100D998CE0142
:100160000197F1F71F5F1330A9F7D99A82E00E9437
:100170004100D99880EA9FE00197F1F788E20E9458
:10018000690088E00E94690081E00E94690080E4C3
:100190009FE10197F1F786E00E9469008CE00E94E0
:1001A0006900DF91CF911F9108958BB380588BBB6D
:1001B0008BB390E489278BBB0E94880082E060E0CB
:1001C0000E947E0080E690E00E94710085E061E080
:1001D0000E947E008DE690E00E94710088EA91E620
:1001E00020E931E0F9013197F1F70197D9F78BB3A5
:1001F00080588BBB8BB390E489278BBB0E9488000F
:1002000084E060E00E947E0082E790E00E9471003E
:1002100082E061E00E947E008AE790E00E94710027
:1002200088E99AE320E931E0F9013197F1F7019784
:10023000D9F70895EF92FF920F931F93CF93DF9317
:100240007C019B01CF9B03C08BB380588BBBCE9BA3
:1002500004C08BB390E489278BBBC89B04C08BB3CD
:1002600091E089278BBBC9016AE070E00E94FE0A19
:100270008C0180E060E00E947E0088E890E00E94AF
:100280007100E114F10479F480E061E00E947E00E5
:1002900089E990E00E947100012BD1F48BB390E4C6
:1002A00089278BBB15C081E0E816F10489F4012B86
:1002B00039F48BB390E489278BBB8BB380588BBB0D
:1002C00080E061E00E947E008AEA90E00E94710076
:1002D000DF91CF911F910F91FF90EF9008958F9232
:1002E0009F92AF92BF92CF92DF92EF92FF920F93C5
:1002F0001F93DF93CF93CDB7DEB764970FB6F89413
:10030000DEBF0FBECDBF83E090E09A83898324E0F7
:1003100030E03C832B8321E030E03E832D8338871F
:100320002F839A878987CF9B03C08BB380588BBB61
:10033000CE9B04C08BB390E489278BBB88E893E104
:1003400020E931E0F9013197F1F70197D9F71C86DF
:100350001B861E861D86188A1F861A8A198A1C8A81
:100360001B8A00E010E0EE24FF245E010894A11C2B
:10037000B11C50E9C52E51E0D52E41E0842E912CC0
:100380009B9917C0F801EE0FFF1FEA0DFB1D80813E
:1003900091818130910519F49387828702C0138679
:1003A000128684EC99E0F6013197F1F70197D9F7BD
:1003B0000CC19C9916C0F801EE0FFF1FEA0DFB1D42
:1003C00080819181029719F49386828602C01386F8
:1003D000128684EC99E0F6013197F1F70197D9F78D
:1003E000F4C09D9916C0F801EE0FFF1FEA0DFB1D2A
:1003F00080819181039719F49386828602C01386C7
:10040000128684EC99E0F6013197F1F70197D9F75C
:10041000DCC09E9916C0F801EE0FFF1FEA0DFB1D10
:1004200080819181049719F49386828602C0138695
:10043000128684EC99E0F6013197F1F70197D9F72C
:10044000C4C00115110549F40E94880080E060E0F5
:100450000E947E008BEB90E063C00130110589F4AF
:100460000E94880080E060E00E947E008BEB90E0BC
:100470000E94710080E061E00E947E0088EC90E0C4
:100480004FC00230110589F40E94880080E060E0CE
:100490000E947E008BEB90E00E94710080E061E0A2
:1004A0000E947E008AEC90E03BC00330110589F485
:1004B0000E94880080E060E00E947E008BEB90E06C
:1004C0000E94710080E061E00E947E008DEC90E06F
:1004D00027C00430110589F40E94880080E060E0A4
:1004E0000E947E008BEB90E00E94710080E061E052
:1004F0000E947E0081ED90E013C00530110591F45B
:100500000E94880080E060E00E947E008BEB90E01B
:100510000E94710080E061E00E947E0086ED90E024
:100520000E9471009A990CC084EC99E020E931E0B6
:10053000F9013197F1F70197D9F723E030E031C0A5
:100540009F990AC084EC99E020E931E0F9013197E4
:10055000F1F70197D9F73CC088EE93E0F6013197A7
:10056000F1F70197D9F70894E11CF11C87E9E81627
:10057000F10409F005CF2CC08D859E85019779F493
:100580008F859889019759F489899A89019739F457
:100590008B899C89019719F422E030E002C021E0A8
:1005A00030E0C90164960FB6F894DEBF0FBECDBF30
:1005B000CF91DF911F910F91FF90EF90DF90CF903F
:1005C000BF90AF909F908F9008950F5F1F4F45CFC2
:1005D0008B859C85019719F7CFCF0E94880085E015
:1005E00060E00E947E008CED90E00E94710082E04D
:1005F00061E00E947E0082EE90E00E94710080E443
:100600009FE120E931E0F9013197F1F70197D9F73E
:100610000E94880080E797E120E931E0F9013197F5
:10062000F1F70197D9F785E060E00E947E008CED3C
:1006300090E00E94710082E061E00E947E0082EE04
:1006400090E00E94710080E49FE120E931E0F9012F
:100650003197F1F70197D9F70E94880080E797E179
:1006600020E931E0F9013197F1F70197D9F785E0F9
:1006700060E00E947E008CED90E00E94710082E0BC
:1006800061E00E947E0082EE90E00E94710080E4B2
:100690009FE120E931E0F9013197F1F70197D9F7AE
:1006A0000E94880008950E94880085E060E00E9412
:1006B0007E008CED90E00E94710082E061E00E947B
:1006C0007E008FEE90E00E94710080E197E220E9C9
:1006D00031E0F9013197F1F70197D9F70E948800CD
:1006E0000895CF9B03C08BB380588BBBCE9B04C0B7
:1006F0008BB390E489278BBB0E9488008BB390E476
:1007000089278BBB80E060E00E947E0088EF90E04C
:100710000E94710080E061E00E947E0083E091E031
:100720000E94710080ED97E020E931E0F9013197F6
:10073000F1F70197D9F78BB390E489278BBB80ED54
:1007400097E020E931E0F9013197F1F70197D9F706
:100750008BB390E489278BBB80ED97E020E931E0F3
:10076000F9013197F1F70197D9F78BB390E4892715
:100770008BBB80ED97E020E931E0F9013197F1F78B
:100780000197D9F78BB390E489278BBB80ED97E075
:1007900020E931E0F9013197F1F70197D9F78BB3EF
:1007A00090E489278BBB80E061E00E947E0087E0B7
:1007B00091E00E94710080ED97E020E931E0F901BD
:1007C0003197F1F70197D9F78BB390E489278BBB69
:1007D00080ED97E020E931E0F9013197F1F70197D9
:1007E000D9F78BB390E489278BBB80ED97E020E9A4
:1007F00031E0F9013197F1F70197D9F78BB390E424
:1008000089278BBB80ED97E020E931E0F901319732
:10081000F1F70197D9F78BB390E489278BBB80ED73
:1008200097E020E931E0F9013197F1F70197D9F725
:100830008BB390E489278BBB80E061E00E947E004F
:100840008BE091E00E94710080ED97E020E931E0BB
:10085000F9013197F1F70197D9F78BB390E4892724
:100860008BBB80ED97E020E931E0F9013197F1F79A
:100870000197D9F78BB390E489278BBB80ED97E084
:1008800020E931E0F9013197F1F70197D9F78BB3FE
:1008900090E489278BBB80ED97E020E931E0F901F6
:1008A0003197F1F70197D9F78BB390E489278BBB88
:1008B00080ED97E020E931E0F9013197F1F70197F8
:1008C000D9F78BB390E489278BBB80E061E00E946D
:1008D0007E008FE091E00E94710080ED97E020E9BA
:1008E00031E0F9013197F1F70197D9F78BB390E433
:1008F00089278BBB80ED97E020E931E0F901319742
:10090000F1F70197D9F78BB390E489278BBB80ED82
:1009100097E020E931E0F9013197F1F70197D9F734
:100920008BB390E489278BBB80ED97E020E931E021
:10093000F9013197F1F70197D9F78BB390E4892743
:100940008BBB80ED97E020E931E0F9013197F1F7B9
:100950000197D9F78BB390E489278BBB80E061E0E6
:100960000E947E0083E191E00E94710080ED97E09B
:1009700020E931E0F9013197F1F70197D9F78BB30D
:1009800090E489278BBB80ED97E020E931E0F90105
:100990003197F1F70197D9F78BB390E489278BBB97
:1009A00080ED97E020E931E0F9013197F1F7019707
:1009B000D9F78BB390E489278BBB80ED97E020E9D2
:1009C00031E0F9013197F1F70197D9F78BB390E452
:1009D00089278BBB80ED97E020E931E0F901319761
:1009E000F1F70197D9F78BB390E489278BBB80E0AF
:1009F00061E00E947E0087E191E00E94710080ED3D
:100A000097E020E931E0F9013197F1F70197D9F743
:100A10008BB390E489278BBB80ED97E020E931E030
:100A2000F9013197F1F70197D9F78BB390E4892752
:100A30008BBB80ED97E020E931E0F9013197F1F7C8
:100A40000197D9F78BB390E489278BBB80ED97E0B2
:100A500020E931E0F9013197F1F70197D9F78BB32C
:100A600090E489278BBB80ED97E020E931E0F90124
:100A70003197F1F70197D9F78BB390E489278BBBB6
:100A800080E061E00E947E008BE191E00E947100B5
:100A900080ED97E020E931E0F9013197F1F7019716
:100AA000D9F78BB390E489278BBB80ED97E020E9E1
:100AB00031E0F9013197F1F70197D9F78BB390E461
:100AC00089278BBB80ED97E020E931E0F901319770
:100AD000F1F70197D9F78BB390E489278BBB80EDB1
:100AE00097E020E931E0F9013197F1F70197D9F763
:100AF0008BB390E489278BBB80ED97E020E931E050
:100B0000F9013197F1F70197D9F78BB390E4892771
:100B10008BBB80E061E00E947E008FE191E00E944B
:100B2000710080ED97E020E931E0F9013197F1F7AC
:100B30000197D9F78BB390E489278BBB80ED97E0C1
:100B400020E931E0F9013197F1F70197D9F78BB33B
:100B500090E489278BBB80ED97E020E931E0F90133
:100B60003197F1F70197D9F78BB390E489278BBBC5
:100B700080ED97E020E931E0F9013197F1F7019735
:100B8000D9F78BB390E489278BBB80ED97E020E900
:100B900031E0F9013197F1F70197D9F78BB390E480
:100BA00089278BBB80E061E00E947E0083E291E0B8
:100BB0000E94710080ED97E020E931E0F901319762
:100BC000F1F70197D9F78BB390E489278BBB80EDC0
:100BD00097E020E931E0F9013197F1F70197D9F772
:100BE0008BB390E489278BBB80ED97E020E931E05F
:100BF000F9013197F1F70197D9F78BB390E4892781
:100C00008BBB80ED97E020E931E0F9013197F1F7F6
:100C10000197D9F78BB390E489278BBB80ED97E0E0
:100C200020E931E0F9013197F1F70197D9F78BB35A
:100C300090E489278BBB80E061E00E947E0087E220
:100C400091E00E94710080ED97E020E931E0F90128
:100C50003197F1F70197D9F78BB390E489278BBBD4
:100C600080ED97E020E931E0F9013197F1F7019744
:100C7000D9F78BB390E489278BBB80ED97E020E90F
:100C800031E0F9013197F1F70197D9F78BB390E48F
:100C900089278BBB80ED97E020E931E0F90131979E
:100CA000F1F70197D9F78BB390E489278BBB80EDDF
:100CB00097E020E931E0F9013197F1F70197D9F791
:100CC0008BB390E489278BBB80E061E00E947E00BB
:100CD0008BE291E00E94710080ED97E020E931E025
:100CE000F9013197F1F70197D9F78BB390E4892790
:100CF0008BBB80ED97E020E931E0F9013197F1F706
:100D00000197D9F78BB390E489278BBB80ED97E0EF
:100D100020E931E0F9013197F1F70197D9F78BB369
:100D200090E489278BBB80ED97E020E931E0F90161
:100D30003197F1F70197D9F78BB390E489278BBBF3
:100D400080ED97E020E931E0F9013197F1F7019763
:100D5000D9F78BB390E489278BBB0E94880080E091
:100D600060E00E947E0088EF90E00E94710080E0C9
:100D700061E00E947E008FE291E00E94710080EDB0
:100D800097E020E931E0F9013197F1F70197D9F7C0
:100D90008BB390E489278BBB80ED97E020E931E0AD
:100DA000F9013197F1F70197D9F78BB390E48927CF
:100DB0008BBB80ED97E020E931E0F9013197F1F745
:100DC0000197D9F78BB390E489278BBB80ED97E02F
:100DD00020E931E0F9013197F1F70197D9F78BB3A9
:100DE00090E489278BBB80ED97E020E931E0F901A1
:100DF0003197F1F70197D9F78BB390E489278BBB33
:100E000080E061E00E947E0082E391E00E94710038
:100E100080ED97E020E931E0F9013197F1F7019792
:100E2000D9F78BB390E489278BBB80ED97E020E95D
:100E300031E0F9013197F1F70197D9F78BB390E4DD
:100E400089278BBB80ED97E020E931E0F9013197EC
:100E5000F1F70197D9F78BB390E489278BBB80ED2D
:100E600097E020E931E0F9013197F1F70197D9F7DF
:100E70008BB390E489278BBB80ED97E020E931E0CC
:100E8000F9013197F1F70197D9F78BB390E48927EE
:100E90008BBB80E061E00E947E0085E391E00E94D0
:100EA000710080ED97E020E931E0F9013197F1F729
:100EB0000197D9F78BB390E489278BBB80ED97E03E
:100EC00020E931E0F9013197F1F70197D9F78BB3B8
:100ED00090E489278BBB80ED97E020E931E0F901B0
:100EE0003197F1F70197D9F78BB390E489278BBB42
:100EF00080ED97E020E931E0F9013197F1F70197B2
:100F0000D9F78BB390E489278BBB80ED97E020E97C
:100F100031E0F9013197F1F70197D9F78BB390E4FC
:100F200089278BBB80E061E00E947E0088E391E02E
:100F30000E94710080ED97E020E931E0F9013197DE
:100F4000F1F70197D9F78BB390E489278BBB80ED3C
:100F500097E020E931E0F9013197F1F70197D9F7EE
:100F60008BB390E489278BBB80ED97E020E931E0DB
:100F7000F9013197F1F70197D9F78BB390E48927FD
:100F80008BBB80ED97E020E931E0F9013197F1F773
:100F90000197D9F78BB390E489278BBB80ED97E05D
:100FA00020E931E0F9013197F1F70197D9F78BB3D7
:100FB00090E489278BBB80E061E00E947E008BE398
:100FC00091E00E94710080ED97E020E931E0F901A5
:100FD0003197F1F70197D9F78BB390E489278BBB51
:100FE00080ED97E020E931E0F9013197F1F70197C1
:100FF000D9F78BB390E489278BBB80ED97E020E98C
:1010000031E0F9013197F1F70197D9F78BB390E40B
:1010100089278BBB80ED97E020E931E0F90131971A
:10102000F1F70197D9F78BB390E489278BBB80ED5B
:1010300097E020E931E0F9013197F1F70197D9F70D
:101040008BB390E489278BBB80E061E00E947E0037
:101050008EE391E00E94710080ED97E020E931E09D
:10106000F9013197F1F70197D9F78BB390E489270C
:101070008BBB80ED97E020E931E0F9013197F1F782
:101080000197D9F78BB390E489278BBB80ED97E06C
:1010900020E931E0F9013197F1F70197D9F78BB3E6
:1010A00090E489278BBB80ED97E020E931E0F901DE
:1010B0003197F1F70197D9F78BB390E489278BBB70
:1010C00080ED97E020E931E0F9013197F1F70197E0
:1010D000D9F78BB390E489278BBB80E061E00E9455
:1010E0007E0081E491E00E94710080ED97E020E9AC
:1010F00031E0F9013197F1F70197D9F78BB390E41B
:1011000089278BBB80ED97E020E931E0F901319729
:10111000F1F70197D9F78BB390E489278BBB80ED6A
:1011200097E020E931E0F9013197F1F70197D9F71C
:101130008BB390E489278BBB80ED97E020E931E009
:10114000F9013197F1F70197D9F78BB390E489272B
:101150008BBB80ED97E020E931E0F9013197F1F7A1
:101160000197D9F78BB390E489278BBB80E061E0CE
:101170000E947E0084E491E00E94710080ED97E07F
:1011800020E931E0F9013197F1F70197D9F78BB3F5
:1011900090E489278BBB80ED97E020E931E0F901ED
:1011A0003197F1F70197D9F78BB390E489278BBB7F
:1011B00080ED97E020E931E0F9013197F1F70197EF
:1011C000D9F78BB390E489278BBB80ED97E020E9BA
:1011D00031E0F9013197F1F70197D9F78BB390E43A
:1011E00089278BBB80ED97E020E931E0F901319749
:1011F000F1F70197D9F78BB390E489278BBB80E097
:1012000061E00E947E0087E491E00E94710080ED21
:1012100097E020E931E0F9013197F1F70197D9F72B
:101220008BB390E489278BBB80ED97E020E931E018
:10123000F9013197F1F70197D9F78BB390E489273A
:101240008BBB80ED97E020E931E0F9013197F1F7B0
:101250000197D9F78BB390E489278BBB80ED97E09A
:1012600020E931E0F9013197F1F70197D9F78BB314
:1012700090E489278BBB80ED97E020E931E0F9010C
:101280003197F1F70197D9F78BB390E489278BBB9E
:10129000CE9B03C08BB389278BBB08950E94880027
:1012A00084E060E00E947E008AE491E00E94710088
:1012B0000895CF9B03C08BB380588BBBCE9B04C0DB
:1012C0008BB390E489278BBB8BB390E489278BBBCE
:1012D0000E94880084E060E00E947E0082E591E048
:1012E0000E94710084E061E00E947E008BE591E045
:1012F0000E94710008952F923F924F925F926F92D9
:101300007F928F929F92AF92BF92CF92DF92EF9295
:10131000FF920F931F93DF93CF93CDB7DEB728973C
:101320000FB6F894DEBF0FBECDBFD69AD79A889A73
:10133000AA9AAB9AAC9AAD9AAE9AAF9A929A939AAD
:10134000949A959A969A979A00E41CE9C801019795
:10135000F1F70E9498000E94880080E060E00E94FF
:101360007E00C8010197F1F70E94D5001E821D8200
:1013700018861F8200E010E02224332444245524E0
:101380006624772488249924AA24BB24CC24DD2431
:10139000EE24FF241C821B821A821982011511057A
:1013A00049F42114310431F48B819C8169817A8163
:1013B0000E941A019F990CC00E946F0198878F8329
:1013C00084EC99E0E0E9F1E03197F1F70197D1F78A
:1013D0008F81988518161906DCF58230910591F0F9
:1013E0008330910599F1019799F5ED81FE81319650
:1013F000FE83ED830E94ED028D819E8103970CF0A8
:10140000F2C024C00E945303012B29F40E947103EF
:101410001C821B82EBC0809B04C082B391E08927B1
:1014200082BB1E821D8218861F8200E010E02224EB
:101430003324442455246624772488249924AA2418
:10144000BB24CC24DD24EE24FF24BBC018861F82DD
:101450000130110509F0A0C02114310409F09AC02F
:101460000E945909829B0FC00894411C511CEFE057
:101470004E16510484F00E946F0198878F8310E10B
:10148000412E512C08C0829906C04114510419F014
:10149000089441085108839B0FC00894611C711C7B
:1014A000FFE06F16710484F00E946F0198878F83AC
:1014B000B0E16B2E712C08C0839906C061147104D1
:1014C00019F0089461087108849B0FC00894811C6E
:1014D000911C8FE08816910484F00E946F01988718
:1014E0008F83A0E18A2E912C08C0849906C08114B4
:1014F000910419F0089481089108859B0FC0089405
:10150000A11CB11C9FE0A916B10484F00E946F01D8
:1015100098878F83F0E1AF2EB12C08C0859906C063
:10152000A114B10419F00894A108B108869B0FC05A
:101530000894C11CD11CEFE0CE16D10484F00E94A7
:101540006F0198878F83E0E1CE2ED12C08C0869959
:1015500006C0C114D10419F00894C108D108879BB2
:1015600010C00894E11CF11CFFE0EF16F1040CF42C
:1015700042C00E946F0198878F8370E1E72EF12CA3
:101580003AC0879938C0E114F104A9F10894E10840
:10159000F10831C001E010E081E02816310489F43F
:1015A000809904C082B391E0892782BBCF9903C0A0
:1015B0008BB380588BBB0E944E09E1E0F0E0FC83C6
:1015C000EB8388EE93E0E0E9F1E03197F1F70197E2
:1015D000D1F789819A8101969A838983843691050E
:1015E0000CF4DCCED9CE61E0262E312C1E821D8279
:1015F00018861F8231CF01E010E0E3CF97FB092E60
:1016000007260AD077FD04D00CD006D000201AF4AB
:10161000709561957F4F0895F6F7909581959F4F4E
:101620000895AA1BBB1B51E107C0AA1FBB1FA61729
:10163000B70710F0A61BB70B881F991F5A95A9F77B
:0E16400080959095BC01CD010895F894FFCFE0
:10164E0043656E7472616C61204153530076302E87
:10165E0032004D61646520627900506177656C20BF
:10166E005A6172656D626100202043656E7472610D
:10167E006C61204153532020004272616B20706FC9
:10168E00776961646F6D69656E007779732E204E90
:10169E00617275737A656E69652100577069737A28
:1016AE00204861736C6F3A002A002A2A002A2A2ADF
:1016BE00002A2A2A2A002A2A2A2A2A004861736C1A
:1016CE006F004E6965706F707261776E65210050A4
:1016DE006F707261776E6500557A6272616A616EC3
:1016EE00696500323073003139730031387300315F
:1016FE003773003136730031357300313473003176
:10170E00337300313273003131730031307300396D
:10171E0073003873003773003673003573003473FB
:10172E0000337300327300317300414C41524D202F
:10173E00210043656E7472616C6100557A62726F3E
:06174E006A6F6E610000ED
:00000001FF
